:021D09001B4B72
:021D0B001B11AA
:021D0D001B2E8B
:0B1CAB005441534B20232025640A0005
:101C1300121C017F807E257D007C0012191E021399
:011C23004C74
:101B4B00121C137B017D01E4FF12189A7F01120412
:0B1B5B00E77F021204E7E4FF020570C0
:101B1100E4FF121BC71205F97525008F267BFF7A9A
:0D1B21001C79AB120070E4FF121B8080E302
:101B2E00E4FF121BC71205F97525008F267BFF7A7D
:0D1B3E001C79AB120070E4FF121B8080E3E5
:03000000020FB537
:0C0FB500787FE4F6D8FD75817F020FFC08
:06118500E57624F8F57682
:10118B00F81207AD00000000E47FFF7EFFFDFCA816
:10119B0076120794C31207645036E5762404F812CE
:1011AB000788EF2401FFE43EFEE43DFDE43CFCE553
:1011BB00762404F81207A1A876120788EF2401FF02
:1011CB00E43EFEE43DFDE43CFCA8761207A180B8AA
:0711DB00E5762408F57622F9
:101622008F398E388D378C36538EF7438901D28CA1
:10163200E4FFFEFDFCAB39AA38A937A836C312076E
:10164200646025758AEE758CFF308DFDC28DE5399B
:1016520024FFF539E53834FFF538E53734FFF5373F
:0B166200E53634FFF53680C8C28C224C
:10166D008F3D8E3C8D3B8C3A538EEF438910D28E3D
:10167D00E4FFFEFDFCAB3DAA3CA93BA83AC3120713
:10168D00646025758BEE758DFF308FFDC28FE53D46
:10169D0024FFF53DE53C34FFF53CE53B34FFF53BE0
:0B16AD00E53A34FFF53A80C8C28E22F7
:1014A0008F418E408D3F8C3E53C9BF53C9DF43C926
:1014B00010D2CAE4FFFEFDFCAB41AA40A93FA83E02
:1014C000C3120764602575CCC875CDFF30CFFDC24F
:1014D000CFE54124FFF541E54034FFF540E53F34D9
:0E14E000FFF53FE53E34FFF53E80C8C2CA224C
:10153C008F458E448D438C4275C40243C408E4FF2E
:10154C00FEFDFCAB45AA44A943A842C31207646044
:10155C002875C5C875C6FFE5C430E4FB53C4EFE578
:10156C004524FFF545E54434FFF544E54334FFF5E8
:0D157C0043E54234FFF54280C553C4F72219
:1016B8008F498E488D478C46538EF7438901D28CCB
:1016C800E4FFFEFDFCAB49AA48A947A846C3120798
:1016D800646025758ACD758CF8308DFDC28DE5491D
:1016E80024FFF549E54834FFF548E54734FFF54759
:0B16F800E54634FFF54680C8C28C2296
:101703008F4D8E4C8D4B8C4A538EEF438910D28E66
:10171300E4FFFEFDFCAB4DAA4CA94BA84AC312073C
:10172300646025758BCD758DF8308FFDC28FE54DC7
:1017330024FFF54DE54C34FFF54CE54B34FFF54BF9
:0B174300E54A34FFF54A80C8C28E2240
:1014EE008F518E508D4F8C4E53C9BF53C9DF43C998
:1014FE0010D2CAE4FFFEFDFCAB51AA50A94FA84E74
:10150E00C3120764602575CC6675CDEA30CFFDC277
:10151E00CFE55124FFF551E55034FFF550E54F343A
:0E152E00FFF54FE54E34FFF54E80C8C2CA22CD
:101589008F558E548D538C5275C40243C408E4FFA1
:10159900FEFDFCAB55AA54A953A852C312076460B7
:1015A9002875C56675C6EAE5C430E4FB53C4EFE5A2
:1015B9005524FFF555E55434FFF554E55334FFF54B
:0D15C90053E55234FFF55280C553C4F7229C
:1013FA008F598E588D578C56538FFB538FFD538FB1
:10140A00FEE4F586538FDF438F08E4FFFEFDFCAB55
:10141A0059AA58A957A856C31207646022E58F3003
:10142A00E4FB538FEFE55924FFF559E55834FFF5EE
:10143A0058E55734FFF557E55634FFF55680CB5338
:03144A008FF722F7
:0E1C54000C0E00000000000000000000000068
:10189A00D310AF01C3C0D0EF25E025E0240EF8A68F
:1018AA0005EF25E025E0240FF8A603EF25E025E063
:0C18BA002410F8E4F608F6D0D092AF221B
:10179700D310AF01C3C0D08F22EF25E025E0240F7F
:1017A700F8E6D394004005167FFF80241205F974EC
:1017B700017E00A807088005C333CE33CED8F9FFD2
:1017C700E52225E025E02410F8A60608A6077F00F5
:0517D700D0D092AF220A
:101BC700121797EF700DE4FBFA7DFF7F0212060CE8
:041BD700BF80F322B6
:090E7700D310AF01C3C0D0AD07D8
:100E8000E47B01FAED25E025E0240FF8E6D3940099
:100E9000500FED25E025E02410F8E6FE08E64E7040
:100EA0002EED25E025E0240FF806ED25E025E024D1
:100EB0000EF8E6FFED25E025E0240FF8E6D39F408D
:100EC0000AED25E025E0240FF8A6077FFF8049E41E
:100ED000FCED25E025E02410F8E6F58308E6F58230
:100EE000E5835AFEE5825B4E602174017E00A80412
:100EF000088005C333CE33CED8F9F4FFEEF4558322
:100F0000FEEF55824E6004AF04800DEB25E0FBEA56
:080F100033FA0CBC10BB7F009A
:050F1800D0D092AF22D1
:021B8000AE07AE
:101B8200AF06120E77EFFD3395E0FCEDF44C6006E4
:061B92001205FC1203E63F
:011B9800222A
:100829003D3D3D3D3D3D3D3D3D3D3D3D3D3D3D3DEF
:100839003D3D3D3D3D3D3D3D3D3D3D3D3D3D3D3DDF
:100849003D3D3D3D3D3D3D3D3D3D3D3D3D3D3D3DCF
:100859003D3D3D3D3D3D3D3D3D3D3D3D3D3D3D3DBF
:100869003D3D3D3D0D0A002A20202020436F70792F
:1008790072696768742863292032303136204D6FD8
:100889006C656920546563686E6F6C6F6779204386
:100899006F72702E20416C6C2072696768747320C6
:1008A90072657365727665642E20200D0A002A2010
:1008B900202020436F6E7461637420452D4D61695A
:1008C9006C3A206D746B6F77656E40686F746D61FB
:1008D900696C2E636F6D202020202020202020208D
:1008E90020202020202020202020202020202020FF
:1008F90020200D0A002A2020202046572056657204
:1009090073696F6E20203A202532642E2532642EB9
:100919002532640D0A002A2020202046696E697359
:100929006865642044617465203A202532642E2567
:1009390032642E2532640D0A003D3D3D3D3D3D3D6D
:100949003D3D3D3D3D3D3D3D3D3D3D3D3D3D3D3DCE
:100959003D3D3D3D3D3D3D3D3D3D3D3D3D3D3D3DBE
:100969003D3D3D3D3D3D3D3D3D3D3D3D3D3D3D3DAE
:0E0979003D3D3D3D3D3D3D3D3D3D3D3D3D0057
:10134C007BFF7A0879291200707BFF7A087970127A
:10135C0000707BFF7A0879B71200707BFF7A0879EE
:10136C00FE752500752601E4F527F528F529F52AE3
:10137C001200707BFF7A09791F7525077526E075B9
:10138C002700752809752900752A101200707BFF3B
:07139C007A0979420200709A
:0E1C9000EF700453E17F22BF010343E1802285
:100DC300EFB40A004003020E73900DD3F828287382
:100DD300020DF1020DFE020E0B020E18020E250289
:100DE3000E32020E3F020E4C020E59020E66E4F55D
:100DF300E843B10153B2FE43F6012275E80143B162
:100E03000253B2FD43F6022275E80243B10453B222
:100E1300FB43F6042275E80343B10853B2F743F6E4
:100E2300082275E80443B11053B2EF43F61022755C
:100E3300E80543B12053B2DF43F6202275E80643A9
:100E4300B14053B2BF43F6402275E80743B1805324
:100E5300B27F43F6802275E80843B54053B6BF43DB
:100E6300E2082275E80943B50153B6FE43E20422C2
:040E730043E80F221F
:10112300EFB40900505B901130F828287302114B7B
:1011330002115002115202115702115002116102A1
:10114300116902117102117B53E1BF8014800A53AC
:10115300E1BF801D53E1BF802253E1BF800B43E118
:101163004053E1DF800E43E14053E1DF801043E170
:101173004043E12053E1EF2243E14043E12043E1D7
:02118300102238
:101BB100AE07AC0343E101AF06121C90AF05120D55
:061BC100C3AF0402112372
:100ACF00EF146043147003020B92147003020BCEE9
:100ADF0014606124046003020C0CA2AF920BC2AF2E
:100AEF0075C7AA75C755439780A20B92AFA2AF9255
:100AFF000BC2AF75C7AA75C7555397BFA20B92AF5D
:100B0F00E59630E7FB8058A2AF920BC2AF75C7AA2C
:100B1F0075C75553977FA20B92AFA2AF920BC2AF7F
:100B2F0075C7AA75C755439740A20B92AFE596308C
:100B3F00E6FB802BA2AF920BC2AF75C7AA75C75544
:100B4F0053977FA20B92AFA2AF920BC2AF75C7AAFA
:100B5F0075C7555397BFA20B92AFE59630E3FBA233
:100B6F00AF920BC2AF75C7AA75C7555396FBA20BB1
:100B7F0092AFA2AF920BC2AF75C7AA75C755439676
:100B8F00028076A2AF920BC2AF75C7AA75C7554345
:100B9F009720A20B92AFE59630E5FBA2AF920BC266
:100BAF00AF75C7AA75C7555396FBA20B92AFA2AFED
:100BBF00920BC2AF75C7AA75C7555396FD803AA25F
:100BCF00AF920BC2AF75C7AA75C755439710A20B4B
:100BDF0092AFE59630E4FBA2AF920BC2AF75C7AAF6
:100BEF0075C755439604A20B92AFA2AF920BC2AF3B
:100BFF0075C7AA75C7555396FDA20B92AFE59720FF
:030C0F00E0FB22E5
:101B660075C7AA75C755A2AF920BC2AF75C7AA753E
:0A1B7600C755439F80A20B92AF22D7
:041D0F0043B40822AF
:1019ED00EF14601014601214601624037018E4F5DF
:1019FD00B1F5B222E4F5B1800A75B1FFE4F5B2227A
:071A0D0075B1FF75B2FF2265
:101A1400EF14601014601214601624037018E4F5B7
:101A2400B3F5B422E4F5B3800A75B303E4F5B42244
:071A340075B30375B4032232
:10199C00EF1460101460141460182403701AE4F52A
:1019AC00B5F5B622E4F5B575B6FF2275B57FE4F54D
:0919BC00B62275B57F75B67F22D5
:101A3B00EF14601014601214601624037018E4F590
:101A4B00ACF5AD22E4F5AC800A75ACFFE4F5AD2244
:071A5B0075ACFF75ADFF2221
:101C0100E4F5B1F5B2F5B3F5B4F5B5F5B6F5ACF566
:021C1100AD2202
:1019C50075985243892053877F538EEF53C4DFABFD
:1019D50007AA06A905A804E4FF7EE1FDFC1206D2CC
:0819E500EFF404F58DD28E220F
:10191E00759852438920438780538EEF53C4DFABB3
:10192E0007AA06A905A8047F007EC27D017C0012CD
:0A193E0006D2EFF404F58DD28E22DC
:1019480075985243892053877F438E1053C4DFAB69
:1019580007AA06A905A8047F007E8C7D0A7C0012D0
:0A19680006D2EFF404F58DD28E22B2
:10197200759852438920438780438E1053C4DFAB4E
:1019820007AA06A905A8047F007E187D157C00120F
:0A19920006D2EFF404F58DD28E2288
:10129A008F5D8E5C8D5B8C5A75985253877F53C4D1
:1012AA00F843C420AB5DAA5CA95BA85A7F007E8C78
:1012BA007D0A7C001206D2C3E49FFFE49EFE7401FD
:1012CA009DFDE49CFC78081207758FC6AB5DAA5C8D
:1012DA00A95BA85A7F007E8C7D0A7C001206D2C3C5
:0912EA00E49FFF8FC543C40822F4
:1012F3008F618E608D5F8C5E75985243878053C477
:10130300F843C420AB61AA60A95FA85E7F007E1882
:101313007D157C001206D2C3E49FFFE49EFE740198
:101323009DFDE49CFC78081207758FC6AB61AA602B
:10133300A95FA85E7F007E187D157C001206D2C3CC
:09134300E49FFF8FC543C408229A
:10144D008F658E648D638C6275F85253C4F8AB65ED
:10145D00AA64A963A8627F007E187D157C00120620
:10146D00D2C3E49FFFE49EFE74019DFDE49CFC78D5
:10147D00081207758FC6AB65AA64A963A8627F00C1
:10148D007E187D157C001206D2C3E49FFF8FC543E5
:03149D00C408225E
:070003003098FDAF99C2988F
:01000A0022D3
:081CEB00C2998F993099FD2286
:101BDB0012066BFF600C121CEB740129F9E43AFA44
:031BEB0080EE2267
:071CF30030F8FDAF9AC2F8C2
:011CFA0022C7
:081CFB00C2F98F9A30F9FD22B5
:101BEE0012066BFF600C121CFB740129F9E43AFA21
:031BFE0080EE2254
:0B1CB600EF600443DF082253DFF72239
:0B1CC100EF700443D7402253D7BF222E
:1018C600EF14601414601514601614601714601871
:1018D6002405701743D7012243D7022243D7042297
:0C18E60043D7082243D7102243D720220A
:1018F200EF14601414601514601614601714601845
:101902002405701753D7FE2253D7FD2253D7FB224B
:0C19120053D7F72253D7EF2253D7DF2220
:101B9900AE07AC03121CB6AF05121CC1EEAF046050
:081BA900030218C61218F22213
:101AAC00EF14600F14601114601324037013C2D967
:101ABC00C2D822C2D9D2D822D2D9C2D822D2D9D213
:021ACC00D8221E
:101ACE00EF14600F14601114601324037013C2DB43
:101ADE00C2DA22C2DBD2DA22D2DBC2DA22D2DBD2E5
:021AEE00DA22FA
:100F1D00EFB408004003020FB4900F2DF82828738A
:100F2D00020F45020F53020F61020F6F020F7D0278
:100F3D000F8B020F99020FA743FB01BD010443FC68
:100F4D00012253FCFE2243FB02BD010443FC02229D
:100F5D0053FCFD2243FB04BD010443FC042253FC5E
:100F6D00FB2243FB08BD010443FC082253FCF7227E
:100F7D0043FB10BD010443FC102253FCEF2243FB45
:100F8D0020BD010443FC202253FCDF2243FB40BD66
:100F9D00010443FC402253FCBF2243FB80BD0104EE
:080FAD0043FC802253FC7F226B
:1010BE00EF7011A2AF920BC2AF75C7AA75C7554399
:1010CE00F9018023BF0111A2AF920BC2AF75C7AA5F
:1010DE0075C75543F902800FA2AF920BC2AF75C709
:1010EE00AA75C75543F904A20B92AF75C7AA75C767
:1010FE005543F90775C7AA75C75575FA2C74017053
:10110E000A75C7AA75C75553F9EF2275C7AA75C7D1
:04111E005543F9102C
:0111220022AA
:101A8900EF14600C14601014600424037014800CAB
:101A990053DF7F43DF402243DF80800353DF7F53DF
:031AA900DFBF227A
:10104100EFB40800507690104EF82828730210660D
:1010510002107102107C02108702109202109D0290
:1010610010A80210B3ED600453D6FE2243D601222C
:10107100ED600453D6FD2243D60222ED600453D61F
:10108100FB2243D60422ED600453D6F72243D6084F
:1010910022ED600453D6EF2243D61022ED600453B3
:1010A100D6DF2243D62022ED600453D6BF2243D699
:0D10B1004022ED600453D67F2243D68022FA
:0F1C6300538EEF438910758BFA758DFFD28E2249
:0D1C9E00EF6006438E40021C63538EBF2290
:0B1CCC00EF700453DFEF2243DF102213
:0B1CD700EF700453DFDF2243DF202208
:10174E00EFB40800503F90175BF828287302177308
:10175E0002177702177B02177F0217830217870281
:10176E00178B02178F43DE012243DE022243DE0473
:10177E002243DE082243DE102243DE202243DE40D7
:09178E002243DE802253DEC0225A
:0F1C7200BF0106439B08D2AF22539BF7C2AF229C
:0F1C8100BF0106439B20D2AF22539BDFC2AF228D
:1011E200EFB4080050569011EFF828287302120746
:1011F20002120C02121102121602121B0212230216
:10120200122B02123553DFFB801253DFFB80155382
:10121200DFFB801853DFFB801D43DF0453DFFD80BB
:101222000E43DF0453DFFD801043DF0443DF02532C
:0D123200DFFE2243DF0443DF0243DF012221
:100987000A493243202753656E6420535441272078
:100997006572726F72000A493243202753656E648D
:1009A70020534C412B5727206572726F72000A49FA
:1009B7003243202753656E642049324320486967D4
:1009C70068204279746520416464726573732720D7
:1009D7006572726F72000A493243202753656E644D
:1009E70020493243204C6F77204279746520416457
:1009F700647265737327206572726F72000A4932D9
:100A070043202753656E6420534C412B52272065A2
:100A170072726F72000A49324320274E6F2041637A
:100A27006B27206572726F72000A49324320275282
:100A3700656164206461746127206572726F72005A
:100A47000A493243202741636B27206572726F7210
:100A5700000A493243202753656E64204869676856
:100A670020627974652061646472657373272065F9
:100A770072726F72000A493243202753656E6420F1
:100A87004C6F772062797465206164647265737353
:100A970027206572726F72000A4932432027577206
:100AA700697465204461746127206572726F7200F2
:100AB7000A49324320275761697420526561647976
:080AC70027206572726F7200B6
:061D030075BE02D2C622EB
:020C12008D66ED
:100C1400EF75F020A4F56985F068D2C5C2C330C36E
:100C2400FDE5BD640860097BFF7A097987120070CD
:100C340075BCA0C2C5C2C330C3FDE5BD641860095C
:100C44007BFF7A09799D120070E568F5BCC2C33058
:100C5400C3FDE5BD642860097BFF7A0979B51200FC
:100C640070E569F5BCC2C330C3FDE5BD6428600905
:100C74007BFF7A0979DD120070D2C5C2C330C3FD8F
:100C8400E5BD641060097BFF7A097987120070C2A0
:100C9400C575BCA1C2C330C3FDE5BD644060097B1A
:100CA400FF7A0A7904120070E4F567D2C2C2C33035
:100CB400C3FDE5BD645060097BFF7A0A791C12000C
:100CC40070E5BC656660097BFF7A0A7930120070B2
:100CD4006366FF0567E567C3942040CFC2C2C2C301
:100CE40030C3FDE5BD645860097BFF7A0A79471279
:090CF4000070C2C3D2C420C4FD8B
:010CFD0022D4
:020CFE008D6AFD
:100D0000EF75F020A4F56D85F06CD2C5C2C330C379
:100D1000FDE5BD640860097BFF7A097987120070E0
:100D2000C2C575BCA0C2C330C3FDE5BD641860096F
:100D30007BFF7A09799D120070E56CF5BCC2C33067
:100D4000C3FDE5BD642860097BFF7A0A795812006B
:100D500070E56DF5BCC2C330C3FDE5BD6428600914
:100D60007BFF7A0A797C120070E4F56B856ABCC25D
:100D7000C330C3FDE5BD642860097BFF7A0A799F13
:100D8000120070636AFF056BE56BC3942040DDD2EF
:100D9000C4C2C320C4FDD2C5C2C330C3FDE5BD6417
:100DA0000860097BFF7A0A79B7120070C2C575BC6A
:100DB000A0C2C330C3FDE5BDB418D4D2C4C2C320A1
:020DC000C4FD70
:010DC200220E
:1017DC000A2A2020535049204572726F722C2070B7
:1017EC006C6561736520636865636B207468652044
:1017FC00636F6E6E656374696F6E20626574776576
:10180C00656E204D435520616E642053504920462F
:05181C006C617368001F
:091CE2007BFF7A1779DC02007027
:10186300EF700553F3FD800EBF010553F3FD800EAA
:10187300BF020843F30253F3FE800643F30243F32C
:101883000143F40853F37F43F31053F3DF53F3F7A8
:0718930053F3FB43F3402275
:1013A300C28475F590E5F430E7FB53F47FE4F5F57B
:1013B300E5F430E7FB53F47FE4F5F5E5F430E7FBC0
:1013C30053F47FE4F5F5E5F430E7FB53F47F75F56B
:1013D300FFE5F430E7FBE5F512068453F47F75F57A
:1013E300FFE5F430E7FBAB1DAA1EA91FE5F51206C6
:0713F3008453F47FD2842231
:101C2400C28475F506E5F430E7FB53F47FD28422D1
:101C3400C28475F504E5F430E7FB53F47FD28422C3
:101C4400C28475F5C7E5F430E7FB53F47FD28422F0
:101AF000C28475F505E5F430E7FB53F47F75F5FF17
:101B0000E5F430E7FBAFF553F47FEF20E0E4D28457
:011B100022B2
:10123F00C28475F503E5F430E7FB53F47FE4F5F56D
:10124F00E5F430E7FB53F47FE4F5F5E5F430E7FB25
:10125F0053F47FE4F5F5E5F430E7FB53F47FE4F561
:10126F0074F575E4F5F5E5F430E7FBAFF553F47F6E
:10127F00EFF46003121CE20575E57570020574C387
:0A128F0094FFE574940040DBD28464
:011299002232
:101821008B6E8A6F8970C28475F502E5F430E7FB2F
:1018310053F47FE4F5F5E5F430E7FB53F47FE4F589
:10184100F5E5F430E7FB53F47FE4F5F5E5F430E733
:10185100FB53F47F75F56EE5F430E7FB53F47FD26B
:021861008422DF
:0615D6008B718A7289731B
:1015DC00C28475F503E5F430E7FB53F47FE4F5F5CD
:1015EC00E5F430E7FB53F47FE4F5F5E5F430E7FB85
:1015FC0053F47FE4F5F5E5F430E7FB53F47FE4F5C1
:10160C00F5E5F430E7FBAFF553F47F74716F6003CD
:05161C00121CE2D28463
:0116210022A6
:03000B0002036F7E
:10036A00C2AF80FE3212036E85D00B75D008FAC276
:10037A008CE58A24F7F58AE58C34D8F58CD28CEC96
:10038A00247EF8E6BC020274FFC39581B4140040CF
:10039A00CF7903787716E608700BC2AFE630E1032F
:1003AA004418F6D2AF08D9EDEA8BD0300903D20A45
:1003BA0022D50DFAC0E0C0D0C0F0C083C082C00010
:1003CA00C001C002C003C004C005C006C007E50CD6
:1003DA00232478F87440C2AF46F6D2AFD209E50CAE
:1003EA00FF232478F80F0808EFB50C06100A034318
:1003FA008701BF03047F007878E630E4E800E50C63
:10040A00C39F5020050C747D250CF8E6FDA68108D3
:10041A00E6AE0CBE020274FFCDF8E86D60E008E6B5
:10042A00C0E080F6E50CD39F4027E50C247EF8E671
:10043A00AE0CBE020274FFFD18E6CDF8E5816D60D0
:10044A0006D0E0F61880F5E50C247DC8F6150C8078
:10045A00D3750D05E50C232478F87F04C2AFE610A6
:02046A00E61E8C
:10046C0030E00310E20C7F0030E10730E3047F083A
:10047C0054F4C2E7C6D2AF54804207C20922F6D266
:10048C00AFD007D006D005D004D003D002D001D015
:10049C0000D082D083D0F0D0D0D0E0C20922787DB9
:1004AC00A68174026006FF0876FFDFFB7F03E47809
:1004BC0077F608F608DFFA78787630901D09740123
:1004CC0093C0E0E493C0E0750D05438901758AF093
:0B04DC00758CD8D28CD2AFD2A92202BE
:1004E700EFD3940240037FFF2274782F2FF8E62082
:1004F700E5F4C2AFE64430F6D2AFAE0CEEC39F5080
:10050700210E747D2EF8E6F908E618BE020274FF84
:10051700FDED69600909E71919F7090980F316164E
:1005270080DAEED39F400405810581EED39F4022F8
:10053700747D2EF808E6F9EEB50C02A981180606B7
:10054700E6FDED6960091919E70909F71980F31E36
:1005570080D9EF247DF8E604F8EF2F04901D099366
:09056700F608EF2F93F67F002245
:10057000EFD3940240037FFF22EF232478F8E63084
:10058000E5F4C2AFE6548CF6D2AFE50CB5070A74B9
:100590007D2FF8E6F5810203E6502E747E2FF8E6F3
:1005A000BF020274FFFD18E6F9747D2FF8FBE6FC2C
:1005B000E96C6008A805E7F61D1980F4A803A605F4
:1005C0001FE50CB507E37F0022747E2FF8E6FD18C7
:1005D00086010F747D2FF8A601088604E50CB50787
:1005E00002AC81ED6C60080D09A805E6F780F4E522
:0905F0000CB507DE89817F0022B1
:0305F900AF0C2222
:1005FC00EF232478F8C2AFE64490F6D2AF0203B8EA
:10060C008FF0E4FFFEE50C232477F8C2A930F70D38
:10061C007F08E6600B2DF660325030800730F10613
:10062C00EDF660277E020830F010C2AFE610E72529
:10063C000E30E20CD2AF7F048014C2AFE610E71587
:10064C0054EC4EF6D2AFD2A90203E67F0808EF4471
:0F065C0083F4C2AF56C6D2AFD2A954804FFF224B
:100FC1000204AAE493A3F8E493A34003F68001F298
:100FD10008DFF48029E493A3F85407240CC8C33331
:100FE100C4540F4420C8834004F456800146F6DF00
:100FF100E4800B0102040810204080901C54E47E20
:10100100019360BCA3FF543F30E509541FFEE493F4
:10101100A360010ECF54C025E060A840B8E493A3BB
:10102100FAE493A3F8E493A3C8C582C8CAC583CAE6
:10103100F0A3C8C582C8CAC583CADFE9DEE780BE9E
:011C62000081
:10066B00BB010689828A83E0225002E722BBFE028D
:09067B00E32289828A83E49322C0
:10068400BB010689828A83F0225002F722BBFE0155
:02069400F3224F
:1006960075F008758200EF2FFFEE33FECD33CDCC1B
:1006A60033CCC58233C5829BED9AEC99E58298409E
:1006B6000CF582EE9BFEED9AFDEC99FC0FD5F0D67B
:1006C600E4CEFBE4CDFAE4CCF9A88222B800C1B9A5
:1006D6000059BA002DEC8BF084CFCECDFCE5F0CBE3
:1006E600F97818EF2FFFEE33FEED33FDEC33FCEB1C
:1006F60033FB10D703994004EB99FB0FD8E5E4F9D7
:10070600FA227818EF2FFFEE33FEED33FDEC33FCC3
:10071600C933C910D7059BE99A4007EC9BFCE99AB7
:10072600F90FD8E0E4C9FAE4CCFB2275F010EF2FFC
:10073600FFEE33FEED33FDCC33CCC833C810D707FC
:100746009BEC9AE899400AED9BFDEC9AFCE899F837
:0E0756000FD5F0DAE4CDFBE4CCFAE4C8F922CA
:10076400EB9FF5F0EA9E42F0E99D42F0E89C45F0EB
:010774002262
:10077500E8600FECC313FCED13FDEE13FEEF13FF62
:03078500D8F12286
:0C078800E6FC08E6FD08E6FE08E6FF229D
:0D079400E6FB08E6F908E6FA08E6CBF822D5
:0C07A100ECF608EDF608EEF608EFF62284
:1007AD00D083D082E493F608740193F60874029313
:0907BD00F608740393F67404734A
:10000E00E5312425F8E605312278223007027825DD
:10001E00E475F0011207F302066B2000EB7F2ED27F
:10002E00008018EF540F2490D43440D4FF30040BCA
:10003E00EF24BFB41A0050032461FFE532600215AD
:10004E00320535E5357002053430070D7822E4753A
:10005E00F0011207F3EF020684021A627403D2074C
:10006E008003E4C207F5318B228A238924E4F5321A
:10007E00F534F535E53260077F2012004980F575BD
:10008E0033FFC201C200C202C203C205C206C208C9
:10009E00120017FF700D3007057F0012005AAF35A2
:1000AE00AE3422B4255FC2D5C204120017FF24D08D
:1000BE00B40A00501A75F00A783230D50508B6FF2A
:1000CE000106C6A426F620D5047002D20380D924D8
:1000DE00CFB41A00EF5004C2E5D20402025AD20184
:1000EE0080C6D20080C0D20280BCD2D580BAD205E2
:1000FE0080B47F201200492002077401B5320040FF
:10010E00F112000EFF120049020082D208D20680C0
:10011E009512000EFB12000EFA12000EF94A4B70E9
:10012E0006792B7A037BFF20022EE532602A7E00B1
:10013E008E827583001207C660060EEE653370F070
:10014E00C2D5EBC0E0EAC0E0E9C0E0EE1202A1D0F9
:10015E00E0F9D0E0FAD0E0FB12066BFF60AAEBC02C
:10016E00E0EAC0E0E9C0E0120049D0E02401F9D095
:10017E00E03400FAD0E0FBE5330460DCD533D980FF
:10018E00877BFF7A02799DD202809C79108002795A
:10019E0008C206C2088008D2D5790A8004790AC23C
:1001AE00D5E533047002F533E4FAFDFEFF12000EBE
:1001BE00FC7B0820011312000EFD7B1030000A128A
:1001CE00000EFE12000EFF7B20EC3382D592D5502E
:1001DE0013C3E43000069FFFE49EFEE42001039D5E
:1001EE00FDE49CFCE4CBF8C201EC700CCFCECDCC80
:1001FE00E824F8F870F38017C3EF33FFEE33FEED0B
:10020E0033FDEC33FCEB33FB994002FB0FD8E9EBEB
:10021E00300105F8D0E0C448B201C0E00AEC4D4E02
:10022E004F78207B0070C2EAB5330040BCC0E012AC
:10023E0002A3D0F0D0E0200104C4C0E0C4B201C0DB
:10024E00F0120032D0F0D5F0EB020082120803015A
:10025E001F5301995800F04C00EC42019D4F01A52F
:0F026E004401A54901054301AB55018F46018F9E
:10027D0045018F47034B5000F42D00F82E011B2B29
:10028D0000FC2301192003342A00B4480000011397
:10029D003F3F3F00790AA2D5200314300509B9105C
:1002AD00020404B9080104A2D5200602500104205D
:1002BD0002689202B532005034C0E07F203003193D
:1002CD007F30A20272067205500F1202FAC202C2EC
:1002DD0006C205C2087F30800F300503E9C0E01269
:1002ED000049300503D0E0F9D0E0B532CC30051728
:1002FD007F30B9100C1200497F583004077F788089
:10030D0003B908031200493002057F2D0200497F11
:10031D00202008F87F2B2006F322920280CF286E32
:10032D00756C6C2900D20112000E3001F8C20178F3
:10033D003230D50108F60200B42D50434958120051
:10034D000E2403B405004001E49003469312003AD5
:0D035D00743A12003AD2037532040201997D
:1007C600BB010CE58229F582E5833AF583E02250E8
:1007D60006E92582F8E622BBFE06E92582F8E22232
:0D07E600E58229F582E5833AF583E493224C
:1007F300FAE6FB0808E6F925F0F618E6CA3AF62207
:10080300D083D082F8E4937012740193700DA3A384
:1008130093F8740193F5828883E473740293686098
:06082300EFA3A3A380DF98
:101A6200EFB40A07740D121A6D740A309811A8990E
:101A7200B8130CC2983098FDA899C298B811F630E4
:071A820099FDC299F59922BC
:00000001FF
